:1000000010C01FC01EC01DC01CC01BC046C019C0F0
:1000100018C017C016C015C014C013C012C011C03C
:1000200072C011241FBECFE5D2E0DEBFCDBF20E0FD
:10003000A0E6B0E001C01D92A336B207E1F792D06E
:10004000C9C0DECF89B3817090E0089589B38695E9
:10005000817090E0089525B18FEF90E0821B9109A7
:100060000895813011F4C09A0895C198089581309F
:1000700011F4C19A0895C1980895813011F4C29A7B
:100080000895811102C0C298089598B388B38095ED
:1000900084709B7F892B88BB08951F920F920FB6A7
:1000A0000F9211242F933F934F935F936F937F93FE
:1000B0008F939F93AF93BF93EF93FF9380916000D3
:1000C00090916100892B51F08091600090916100C6
:1000D0000197909361008093600004C080E0C1DFCD
:1000E00080E0CBDFFF91EF91BF91AF919F918F9116
:1000F0007F916F915F914F913F912F910F900FBE24
:100100000F901F9018951F920F920FB60F92112407
:100110002F933F934F935F936F937F938F939F930F
:10012000AF93BF93EF93FF9380B38093620083E01C
:10013000A4DF25B18FEF90E0821B91098FB981E494
:100140008EB9FF91EF91BF91AF919F918F917F9168
:100150006F915F914F913F912F910F900FBE0F9034
:100160001F9018958FEF87BB18BA80E07ADF1ABA14
:1001700083E08BBB88E08FBD22E02EBD89E09DE34C
:100180009BBD8ABD2CB927B980E183B980EE86B9C1
:10019000D59A88E58DB981E08EB97894CFEFD0E01B
:1001A000C899FECF85B19E01281B310930936100AB
:1001B00020936000C09AC29AC19A48DF892BE9F760
:1001C00080E04FDF80E053DF80E057DF3FDF892BA7
:0801D000E9F3E6CFF894FFCF3C
:00000001FF
