:1000000010C01FC01EC01DC01CC01BC01AC019C01C
:1000100018C017C016C015C014C013C012C011C03C
:100020003DC011241FBECFE5D2E0DEBFCDBF10E042
:10003000A0E6B0E001C01D92A136B107E1F761D0A2
:1000400083C0DECF89B3817090E0089589B386952F
:10005000817090E0089585B12FEF30E0281B3109C1
:10006000C9010895813011F4C09A0895C198089586
:10007000813011F4C19A0895C1980895813011F426
:10008000C29A0895811102C0C298089598B388B3A6
:10009000809584709B7F892B88BB08951F920F9257
:1000A0000FB60F9211242F933F934F935F936F934B
:1000B0007F938F939F93AF93BF93EF93FF9380B3FF
:1000C0008093600080916000881F8827881FD6DF9A
:1000D00025B18FEF90E0821B910980BB81E48EB93E
:1000E000FF91EF91BF91AF919F918F917F916F9110
:1000F0005F914F913F912F910F900FBE0F901F90E6
:1001000018958FEF87BB18BA80E0ACDF1ABA83E08E
:100110008BBB82E087B980E183B980EE86B9D59A3E
:1001200088E58DB981E08EB97894C899FECFC19ADF
:10013000C29A8CDF892BE9F780E09ADF80E09EDFAE
:0C01400085DF892BE9F3F1CFF894FFCFA5
:00000001FF
