:1000000010C017C016C015C014C013C012C011C054
:1000100010C00FC00EC00DC00CC00BC00AC009C07C
:1000200008C011241FBECFE5D2E0DEBFCDBF2AD06D
:1000300054C0E6CF89B3817090E0089589B3869566
:10004000817090E0089585B190E00895813011F4B9
:10005000C09A0895C1980895813011F4C19A089505
:10006000C1980895813011F4C29A0895811102C097
:10007000C298089598B388B3809584709B7F892B2C
:1000800088BB08958FEF87BB18BA80E0DFDF1ABA0C
:1000900083E08BBB82E087B980E183B980EE86B9CB
:1000A000C5B1D0E0C89909C0C19AC29AC7DF892BEF
:1000B000E9F780E0D1DF80E0D5DF83E0D3DF80E0C7
:1000C00090E007C0E9EFF0E03197F1F700C00000E1
:0E00D00001968C179D0724F7F5CFF894FFCF0B
:00000001FF
