:1000000010C017C016C015C014C013C012C011C054
:1000100010C00FC00EC00DC00CC00BC00AC009C07C
:1000200008C011241FBECFE5D2E0DEBFCDBF2ED069
:100030005BC0E6CF89B3817090E0089589B386955F
:10004000817090E0089585B120E031E0281B3109EE
:10005000C9010895813011F4C09A0895C198089596
:10006000813011F4C19A0895C1980895813011F436
:10007000C29A0895811102C0C298089598B388B3B6
:10008000809584709B7F892B88BB08958FEF87BBF9
:1000900018BA80E0DFDF1ABA83E08BBB82E087B951
:1000A00080E183B980EE86B900E011E085B1E80116
:1000B000C81BD109C89909C0C19AC29ABFDF892B50
:1000C000E9F780E0CDDF80E0D1DF83E0CFDF80E0C3
:1000D00090E0E9EFF0E03197F1F700C00000019601
:0C00E0008C179D071CF7F5CFF894FFCF9C
:00000001FF
